:100000000C944D000C940C0B0C940C0B0C941A07D4
:100010000C94F3050C949B080C940C0B0C940C0B97
:100020000C940C0B0C940C0B0C940C0B0C940C0BF4
:100030000C940C0B0C940C0B0C940C0B0C940C0BE4
:100040000C940C0B0C940C0B0C940C0B0C940C0BD4
:100050000C940C0B0C940C0B0C940C0B0C940C0BC4
:100060000C940C0B0C940C0B0C940C0B0C940C0BB4
:100070000C940C0B0C940C0B0C940C0B38003802E9
:10008000803802381200162638123822803822387A
:100090002400163638243826800011241FBECFEFE6
:1000A000CDBFDFE3DEBFECE7F0E040E017C0B59185
:1000B000A59135912591059107FD0CC095918591EC
:1000C000EF01F92FE82F05900D92A217B307D9F78A
:1000D000FE0104C01D92A217B307E1F7E939F40746
:0E00E00031F70E94DB080C94AA0AF894FFCFB7
:1000EE00AEE0B0E0EDE7F0E00C9435094C016B01A9
:1000FE0019821A828FEF9FEF8B839C831D821E8243
:10010E004F83588729873A87A12CB12CD6016D9041
:10011E007C90F301EA0DFB1D808181110FC0D60189
:10012E00ED93FC938081853209F0D3C13F01BFEF7F
:10013E006B1A7B0AF6016082718219C0853279F3DF
:10014E00B401082E000C990B0E9441064FEFA41A21
:10015E00B40ADCCF8C32ACF08D32F9F489819A81FD
:10016E00816089839A833196D601ED93FC93D601F3
:10017E00ED91FC9180818B3269F789819A8184603F
:10018E00F0CF803221F489819A818860EACF833260
:10019E0051F489819A818061E4CF803321F4898181
:1001AE009A818260DECFB701C6010E94FB078D8364
:1001BE009E8397FF0BC029813A81B1E02B272983BB
:1001CE003A839195819591098D839E8389819A8138
:1001DE0080FF03C08D7F89839A83D601ED91FC91B8
:1001EE00119780818E3249F43196ED93FC93B701CD
:1001FE00C6010E94FB078B839C83C6010E94BB082D
:10020E00582ED601ED91FC918081082E000C990B91
:10021E000E94F90A893609F443C084F4833609F43E
:10022E0002C134F4853209F427C18136E1F030C1C0
:10023E008436B1F188360CF4D9C02AC1803709F45E
:10024E009AC03CF48E3609F4BCC08F3609F461C0F6
:10025E001FC1853709F440C0883709F476C083374B
:10026E0009F016C1F3C0652D70E0A701CE010B9603
:10027E000E940000892B09F426C1D601ED91FC9154
:10028E001197CF0101968D939C932081AE01455F0E
:10029E005F4FBE016F5F7F4FC4010E94000010C10F
:1002AE00652D70E0970141E050E0CE010B960E9463
:1002BE007404892B09F407C1F6018081918101969E
:1002CE0080839183AE01455F5F4FBE016F5F7F4FAD
:1002DE00C4010E940204F4C0652D70E0970140E055
:1002EE0050E0CE010B960E947404892B09F4EBC0EA
:1002FE00D6018D919C91119701968D939C93AE0191
:10030E00455F5F4FBE016F5F7F4FC4010E948D0638
:10031E00D7C0652D70E0970140E050E0CE010B96FE
:10032E000E947404892B09F4CEC0F601808191815C
:10033E00019680839183AE01455F5F4FBE016F5F73
:10034E007F4FC4010E949A05BBC0652D70E09701D6
:10035E0040E050E0CE010B960E947404892B09F404
:10036E00B2C0D601ED91FC911197CF0101968D93FC
:10037E009C9320811CC0970140E050E060EF70E03C
:10038E00CE010B960E947404892B09F49CC0F601D1
:10039E00808191810196808391838B859C85892BA9
:1003AE0029F420E030E041E156E984C028E7AE01AF
:1003BE00455F5F4FBE016F5F7F4FC4010E947502A4
:1003CE007FC0A501400F511F652D70E09701CE0132
:1003DE000B960E940000892B09F475C0D6018D91F1
:1003EE009C91119701968D939C9373C0652D70E02F
:1003FE00A701CE010B960E940000892B09F463C061
:10040E00D601ED91FC911197CF0101968D939C939E
:10041E002081AE01455F5F4FBE016F5F7F4FC4010C
:10042E000E9400004DC0B0E85B124DC0F601808105
:10043E009181019680839183D701ED91FC91119763
:10044E00CF0102968D939C93808120C0B0E85B1201
:10045E003AC0F60180819181019680839183D70104
:10046E00ED91FC911197CF0102968D939C93408153
:10047E00518120E030E01EC0B0E85B1224C0F601CE
:10048E00208131812F5F3F4F208331838B870DC0B9
:10049E0085E28B87D6016D927C9219821A821D821B
:1004AE001E828FEF9FEF8B839C8321E030E0AE01A5
:1004BE00455F5F4FBE016F5F7F4FC4010E942908E9
:1004CE008A0D9B1D07C0F601808191810196808364
:0C04DE009183C5012E96EFE00C947E097E
:1004EA00AFE0B0E0EBE7F2E00C9432091C016B01DB
:1004FA0049835A832B83FB0182819381848095806F
:10050A0000811181A680B78097FD02C00D7F02C0CD
:10051A0081E090E0E981FA814080518062807380B5
:10052A009801207133272C833D83740104FF08C08E
:10053A00411451046104710419F032E0E31AF1081C
:10054A00F801E870FF27EE83FF8303FF03C0F1E0A1
:10055A00EF1AF108F6010084F185E02D3197EE8754
:10056A00FF87EA0DFB1D10829C012E193F0928877F
:10057A003987C801827099278A879B87EB818E2FDA
:10058A00EE0F990B9C01215431092C873D872E854A
:10059A003F852230310530F48C819D81892B09F009
:1005AA0042C05CC0411451046104710461F18E853A
:1005BA009F8501978E879F87C2018F7099278A30FE
:1005CA00910514F4C09602C0895A9F4FEC85FD85A7
:1005DA007A9748F49C012062215631092A31310563
:1005EA0010F40E94C00AEE85FF85EA0DFB1D808388
:1005FA00F1E0EF1AF10884E07694679457944794EF
:10060A008A95D1F7C4CF888599858E0D9F1D1816B6
:10061A0019066CF21E141F040CF0BECFEA85FB8586
:10062A00EF2B29F6B9CFE981FA8180819181A281E4
:10063A00B381892B8A2B8B2B89F0EE85FF85EA0DF6
:10064A00FB1D31972B8120838E859F8502978E878C
:10065A009F87FC01EA0DFB1D80E38083EE81FF8109
:10066A00EF2B59F02E853F85215031092E873F8780
:10067A00F901EA0DFB1D80E28083F6014085518570
:10068A00415051092E853F85421B530BB9016A0D12
:10069A007B1D9401C1010E9494079C01F101808194
:1006AA00918190FF06C0F601828193818217930798
:0C06BA000CF4C9012F96E2E10C947B09BE
:1006C600CF93DF93CDB7DEB780E094E0FC011482D0
:1006D60080E294E024E0FC01248380E494E0FC01C1
:1006E600148280E094E028E0FC01208380E294E01C
:1006F60024E0FC01208380E494E0FC01108280E089
:1007060094E0FC01108A80E094E0FC01118A80E00C
:1007160094E0FC01128A80E094E0FC01138A80E0F8
:1007260094E0FC01148A80E094E0FC01158A80E0E4
:1007360094E0FC01168A80E094E0FC01178A80E2CE
:1007460094E0FC01108A80E294E0FC01118A80E2C8
:1007560094E0FC01128A80E294E0FC01138A80E2B4
:1007660094E0FC01148A80E294E0FC01158A80E2A0
:1007760094E0FC01168A80E294E0FC01178A80E48A
:1007860094E0FC01108A80E494E0FC01118A80E484
:1007960094E0FC01128A80E494E0FC01138A80E470
:1007A60094E0FC01148A80E494E0FC01158A80E45C
:1007B60094E0FC01168A80E494E0FC01178A80E04C
:1007C60092E0FC01108280E092E0FC01118280E060
:1007D60092E0FC01128280E092E0FC01138289EC37
:1007E6009AE00E94430A81ED9AE00E94560A89ED3A
:0E07F6009AE00E94690A0000DF91CF910895F9
:10080400A2E0B0E0E8E0F4E00C9432093C016B01B2
:10081400FB0122813381A480B58080819181898309
:100824009A8386809780FA012080318042805380A9
:10083400B201A10157FE07C044275527BA01421946
:1008440053096409750937FD03C08D7F89839A8331
:10085400950157FC05C0898182FD02C083FF02C057
:1008640021503109CE0101967C010AE010E0C60155
:100874000E94DC0457FC03C0298122FF0AC00197AF
:10088400F401E80FF91F57FC02C02BE209C02DE266
:1008940007C023FF06C00197F401E80FF91F20E207
:1008A400208309811A81F6014085518541505109FF
:1008B400481B590BB401680F791F9501C3010E94AD
:1008C40094079C01F3018081918190FF06C0F60199
:1008D40082819381821793070CF4C9012296E2E185
:0408E4000C947B09EC
:1008E800CF93DF93DC01F90168387105F1F05CF40E
:1008F8006138710561F164387105A1F160387105DD
:1009080009F051C02FC0603C710509F441C0603F37
:100918007105F1F1603A710509F045C0C081D181D6
:10092800CE0102968083918325C0C081D181CE01FA
:10093800029680839183452B39F04881042E000C60
:10094800550B660B770B1CC0488150E029C0C0814D
:10095800D181CE01049680839183488159816A812F
:100968007B810EC0C081D181CE01029680839183A4
:10097800452BA1F048815981052E000C660B770B99
:100988004D935D936D937C93139781E090E00DC038
:10099800C081D181CE01029680839183488159819B
:1009A80060E070E0EDCF80E090E0DF91CF910895B6
:1009B800A0E0B0E0E2EEF4E00C943409DC01280198
:1009C8001696AD90BC901797F70180819181129689
:1009D800ED91FC9113971896CD91DC911997219779
:1009E800F7FF02C0E1E0F0E0CA0DDB1D18826901E3
:1009F800A1E0B0E08F01021B130B4C01F2E08F2243
:100A08009924052C000C66087708CE018A199B09E1
:100A1800CA15DB0519F1411551056105710589F004
:100A2800CB01BA01A30192010E947908CA01A62F3D
:100A3800B72F605D6A9341E0C41AD108A901BC01CF
:100A4800E4CF98012C0D3D1D121613064CF31C140F
:100A58001D0434F48114910419F702C080E090E079
:100A6800AB2B31F4F701208131812F7E2083318334
:0A0A7800CDB7DEB7E0E10C947D0974
:100A8200CF93DF9300D00F92CDB7DEB78B8319825D
:100A92001A8216C08A818F9389818F9388E094E9A4
:100AA200892F8F9388E094E98F930E944B090F90CE
:100AB2000F900F900F9089819A81019689839A8372
:100AC2008B81282F30E089819A818217930714F352
:100AD2008BE194E9892F8F938BE194E98F930E94A4
:100AE2004B090F900F908091203890912138292F37
:100AF2002F938F938EE194E9892F8F938EE194E95E
:100B02008F930E944B090F900F900F900F908BE1E3
:100B120094E9892F8F938BE194E98F930E944B097B
:100B22000F900F9000002396CDBFDEBFDF91CF91D3
:020B3200089524
:100B3400A2E0B0E0E0EAF5E00C9436094C016B0168
:100B4400FB01228133816480758080819181898356
:100B54009A83A680B78037FD03C08D7F89839A83EB
:100B6400FA014081518162817381CE0101967C0139
:100B740008E010E09301C6010E94DC04298124FFEF
:100B840006C00197F501E80FF91F20E320832981AE
:100B940023FF06C00197F501E80FF91F20E2208327
:100BA40009811A81F6014085518541505109481B3C
:100BB400590BB501680F791F9301C4010E94940772
:100BC4009C01F4018081918190FF06C0F60182812D
:100BD4009381821793070CF4C9012296EEE00C94DA
:020BE4007F0987
:100BE6001F920F920FB60F9211242F933F934F939C
:100BF6005F936F937F938F939F93AF93BF93EF937F
:100C0600FF93CF93DF93CDB7DEB784E090E0FC018E
:100C16008381882F90E088709927892B31F0809105
:100C2600123890911338FC01099584E090E0FC019C
:100C36008381882F90E084709927892B31F08091E9
:100C4600143890911538FC01099584E090E02FEF57
:100C5600FC0123830000DF91CF91FF91EF91BF91BB
:100C6600AF919F918F917F916F915F914F913F913E
:0C0C76002F910F900FBE0F901F9018954B
:100C82000F931F93CF93DF93DB01109719F48FEF2C
:100C92009FEF3DC02D913C91119730FF25C01696D4
:100CA2004D915C91179714962D913C91159742178F
:100CB200530778F41296ED91FC9113978083129664
:100CC2002D913C9113972F5F3F4F12962D933C939A
:100CD200139716962D913C9117972F5F3F4F1696BB
:100CE2002D933C93179713C01C96ED91FC911D9781
:100CF200309769F2EB01092F182F0995892B39F6E4
:100D02008E819F8101968E839F83812F902FDF9109
:080D1200CF911F910F9108958C
:100D1A00A2E0B0E0E3E9F6E00C9436095C016B016D
:100D2A00FB0122813381848095808081918189832E
:100D3A009A836680778037FD03C08D7F89839A8383
:100D4A00FA014081518162817381CE0101967C0151
:100D5A000AE010E09401C6010E94DC0409811A81AC
:100D6A00F6014085518541505109481B590BB30181
:100D7A00680F791F9401C5010E9494079C01F5012F
:100D8A008081918190FF06C0F6018281938182174A
:0E0D9A0093070CF4C9012296EEE00C947F0939
:100DA800CF93DF93CDB7DEB780E098E02CE635E04F
:100DB800FC012087318780E098E0FC01158280E003
:100DC80098E020ECFC01268380E098E023E0FC0119
:100DD800278380E098E0FC01138680E098E0FC011E
:100DE800148680E098E0FC01168680E098E0FC011B
:100DF800158681EE9AE00E94930989EE9AE00E9496
:100E0800AA0981EF9AE00E94C1091092183810923D
:100E18001938809122389091233822E038E3FC0178
:0C0E2800208331830000DF91CF910895FA
:100E34001F920F920FB60F9211242F933F934F934B
:100E44005F936F937F938F939F93AF93BF93EF932E
:100E5400FF93CF93DF93CDB7DEB780E090E0FC0142
:100E64008381882F90E088709927892B31F08091B5
:100E7400163890911738FC01099580E090E02FEF27
:100E8400FC0123830000DF91CF91FF91EF91BF918B
:100E9400AF919F918F917F916F915F914F913F910E
:0C0EA4002F910F900FBE0F901F9018951B
:100EB000A2E8B0E0EEE5F7E00C9438095C014A01E5
:100EC000CF57DF4F68837983C158D040C12CD12CD4
:100ED000CF57DF4FE881F981C158D0408081882306
:100EE000E9F07401860120E830E0AE014F5F5F4F0A
:100EF000BE016F577F4FC5010E9477008C0D9D1D6D
:100F00008C159D054CF48FE490E08093003890930D
:100F100001388FEF9FEF03C06C01DACFC601CE57C7
:080F2000DF4FECE00C948109A5
:100F2800A0E0B0E0EAE9F7E00C9438096C015B0155
:100F38007A01E901480181E08822992400FD03C073
:100F48004217530750F0A701B501C6010E94F908DE
:100F5800EC16FD0610F0C70117C08E010E191F0907
:100F68000115110541F0B60180E290E00E944106AA
:100F780001501109F5CF8114910429F4A701B50195
:100F8800C6010E94F908CE01CDB7DEB7ECE00C949B
:020F98008109CD
:100F9A00CF93DF93CDB7DEB72897CDBFDEBF6D8382
:100FAA007E838F8398878D819E81AF81B88589835F
:100FBA009A83AB83BC830BC089819A81AB81BC8144
:100FCA000197A109B10989839A83AB83BC8389817B
:100FDA009A81AB81BC81892B8A2B8B2B69F7000004
:0C0FEA002896CDBFDEBFDF91CF910895A7
:100FF600DC01ED91FC91119780818A3221F080E02D
:1010060090E03AE00EC03196ED93FC93DB01ED9152
:10101600FC911197CF0102968D939C9380819181CB
:101026000895ED91FC911197208120532A3068F4A0
:10103600389FA001399F500D1124CA01820F911DBE
:0C1046003196ED93FC931197ECCF0895C8
:10105200A0E0B0E0EFE2F8E00C943A097C01FB0179
:10106200EA01C901A280B380C480D58000811181C8
:10107200209711F4CAE0D6E9009719F4CE010E9434
:101082009C0AB7FC04C0A816B90608F4C50196016B
:10109200AC01BE01C7010E949407CDB7DEB7EAE0FA
:0410A2000C9483091E
:1010A600CF93DF93CDB7DEB760E080E690E00E9495
:1010B600EE0961E181E690E00E94EE0960E082E6D9
:1010C60090E00E94EE0960E080E790E00E94EE0961
:1010D60060E088E790E00E94EE0960E08CE790E02F
:0C10E6000E94EE090000DF91CF910895F8
:1010F200A1E21A2EAA1BBB1BFD010DC0AA1FBB1F1A
:10110200EE1FFF1FA217B307E407F50720F0A21B8B
:10111200B30BE40BF50B661F771F881F991F1A94F8
:1011220069F760957095809590959B01AC01BD0122
:04113200CF0108954C
:101136001F920F920FB60F9211242F938F939F93A6
:10114600EF93FF93CF93DF93CDB7DEB788E090E0C0
:101156002FEFFC0123830000DF91CF91FF91EF91E8
:101166009F918F912F910F900FBE0F901F90189502
:10117600CF93DF93EC0190E0E92FF0E0EE0FFF1F35
:10118600E659FA468081811102C081810EC0A8818C
:10119600B9812C91821305C091811196A883B983D8
:1011A60001C09F5F9B3040F3892FDF91CF91089557
:1011B600CF93DF93CDB7DEB70E947C0A80912038AB
:1011C600909121380196809320389093213887E0BA
:1011D6000E94410580E094E028E0FC0127836CEC46
:0C11E60078ED80E090E00E94CD07E8CF9B
:1011F200A0E0B0E0EFEFF8E00C943C096C01EB01E9
:101202008A017B01E40EF51ECE15DF0541F08991BE
:10121200B601082E000C990B0E944106F5CFC801B9
:0A122200CDB7DEB7E8E00C948509B3
:10122C00CF93DF9300D00F92CDB7DEB789836A835B
:10123C007B8300000E942F0A982F81E08927882346
:10124C00C9F789810E948C0A80E090E02396CDBF7B
:08125C00DEBFDF91CF91089580
:101264002F923F924F925F926F927F928F929F92B2
:10127400AF92BF92CF92DF92EF92FF920F931F93A0
:10128400CF93DF93CDB7DEB7CA1BDB0BCDBFDEBF79
:021294000994BB
:10129600A0E0B0E0E1E5F9E00C944209AE014B5F55
:1012A6005F4FFA0161917191AF01E0912238F0919F
:1012B6002338808191810E946309E2E00C948B09B6
:1012C600A2E0B0E0E9E6F9E00C9440098C0149831C
:1012D6005A83AE014F5F5F4F0E945807F801208185
:1012E60024FF02C08FEF9FEF2296E4E00C94890959
:1012F6002A88398848885F846E847D848C849B84A0
:10130600AA84B984C884DF80EE80FD800C811B81AD
:10131600AA81B981CE0FD11DCDBFDEBFED010895E3
:10132600CF93DF9300D0CDB7DEB789839A838981C7
:101336009A81892B31F089819A8180931A3890930A
:0E1346001B3800000F900F90DF91CF9108959B
:10135400CF93DF9300D0CDB7DEB789839A83898199
:101364009A81892B31F089819A8180931C389093DA
:0E1374001D3800000F900F90DF91CF9108956B
:10138200CF93DF9300D0CDB7DEB789839A8389816B
:101392009A81892B31F089819A8180931E389093AA
:0E13A2001F3800000F900F90DF91CF9108953B
:1013B000CF93DF9300D00F92CDB7DEB789839A83A6
:1013C0006B8389819A814B8168ED0E94010B00003B
:0C13D0002396CDBFDEBFDF91CF910895C2
:1013DC00CF93DF9300D00F92CDB7DEB789839A837A
:1013EC006B8389819A814B8168ED0E94010B00000F
:0C13FC002396CDBFDEBFDF91CF91089596
:1014080025642E2048656C6C6F20576F726C6421C0
:101418000A0D000A0D00436F756E746572207661BF
:0C1428006C7565203D202564200A0D0035
:10143400CF93DF93CDB7DEB760E080E191E00E9407
:10144400D80980E191E0FC01128280E191E0FC0185
:0A145400138280E0DF91CF9108952C
:10145E00CF93DF93CDB7DEB780E098E0FC018481B7
:10146E00882F90E08072992721E0892B09F420E0E3
:08147E00822FDF91CF91089548
:10148600CF93DF9300D0CDB7DEB789839A83898166
:101496009A81809312389093133800000F900F9022
:0614A600DF91CF910895D3
:1014AC00CF93DF9300D0CDB7DEB789839A83898140
:1014BC009A81809314389093153800000F900F90F8
:0614CC00DF91CF910895AD
:1014D200CF93DF9300D0CDB7DEB789839A8389811A
:1014E2009A81809316389093173800000F900F90CE
:0614F200DF91CF91089587
:1014F800CF93DF93CDB7DEB70E9453080E946303F2
:101508000E94D4060E941A0A0000DF91CF91089524
:10151800CF93DF930F92CDB7DEB7898380E098E051
:101528002981FC01228300000F90DF91CF9108955B
:10153800FC01AF014F5F5F4F2081222311F0FA01B8
:0C154800F8CF9F01281B390BC901089542
:10155400EC010E94110B0E94100BCE010E94120B91
:06156400CE010E940E0BF7
:10156A0068076C094C836A9074A07AC00080688806
:06157A0000846C82008178
:101580009C01215631092A31310510F48F759927B4
:021590000895BC
:10159200CF93DF93CDB7DEB70000DF91CF910895EF
:1015A200CF93DF93CDB7DEB70000DF91CF910895DF
:1015B200CF93DF93CDB7DEB70000DF91CF910895CF
:1015C200CF93DF93CDB7DEB70000DF91CF910895BF
:1015D200CF93DF93CDB7DEB70000DF91CF910895AF
:1015E200CF93DF93CDB7DEB70000DF91CF9108959F
:1015F2009C01215431092A31310508F48062089591
:08160200FC0164BF4083089560
:07160A00286E756C6C2900CD
:06161100286E696C29003F
:041618000C9400002E
:04161C000E947500B3
:0216200008952B
:02162200089529
:02162400089527
:101626000300000000000000000000001609000092
:02163600243856
:02000004008278
:090000000000020000C40700002A
:00000001FF
