:100000000C9441000C9485010C9485010C94B9006A
:100010000C947C010C94E4000C9485010C948501F3
:100020000C9485010C9485010C9485010C94850138
:100030000C9485010C9485010C9485010C94850128
:100040000C9485010C9485010C9485010C94850118
:100050000C9485010C9485010C9485010C94850108
:100060000C9485010C9485010C9485010C948501F8
:100070000C9485010C9485010C9485013800380698
:10008000800011241FBECFEFCDBFDFE3DEBFECE762
:10009000F0E040E017C0B591A5913591259105910B
:1000A00007FD0CC095918591EF01F92FE82F059080
:1000B0000D92A217B307D9F7FE0104C01D92A21733
:1000C000B307E1F7E138F40731F70E940F010C9410
:0600D0006A01F894FFCF65
:1000D600CF93DF93C0E0D4E01C82A0E2B4E0149694
:1000E6001C921497E0E4F4E0148288E088831C9262
:1000F60081E08083188A198A1A8A1B8A1C8A1D8ABB
:100106001E8A1F8A50961C92509751961C925197A0
:1001160052961C92529753961C92539754961C9241
:10012600549755961C92559756961C9256975796E5
:100136001C92108A118A128A138A148A158A168AC0
:10014600178AE0E0F2E0108211821282138289E8B7
:1001560091E080930238909303388AE891E0809387
:0C016600003890930138DF91CF9108958C
:100172001F920F920FB60F9211242F933F934F931A
:100182005F936F937F938F939F93AF93BF93EF93FD
:10019200FF931B9B05C0E0910238F091033809954B
:1001A2008FEF83B9FF91EF91BF91AF919F918F91A3
:1001B2007F916F915F914F913F912F910F900FBE61
:0601C2000F901F9018953C
:1001C8001F920F920FB60F9211242F933F934F93C4
:1001D8005F936F937F938F939F93AF93BF93EF93A7
:1001E800FF93589B05C0E0910038F09101380995BC
:1001F8008FEF8BB9FF91EF91BF91AF919F918F9145
:100208007F916F915F914F913F912F910F900FBE0A
:060218000F901F901895E5
:10021E000E947501A0E4B4E031E0E7E0F4E028E0EC
:10022E00000017963C9317974FE784E89EE14150E4
:10023E0080409040E1F700C00000000020834FE7AF
:10024E0084E89EE1415080409040E1F700C00000FC
:10025E0080910438909105380196809304389093DC
:04026E000538DECFA2
:1002720040E068ED80E690E00E94810141E068ED97
:1002820081E690E00E94810140E068ED82E690E024
:100292000E94810140E068ED80E790E00E948101C8
:1002A20040E068ED88E790E00E94810140E068ED5F
:0A02B2008CE790E00E94810108959E
:1002BC0040E068ED80E191E00E948101E0E1F1E035
:0802CC001282138280E0089504
:1002D400EC010E948C010E948B01CE010E948D01D1
:0602E400CE010E9487011B
:0E02EA000E9439010E946B000E945E0108957F
:0A02F8008F938FEF87B98F9118954F
:08030200FC0164BF4083089573
:04030A000C9400004F
:04030E000E946900E0
:0203120008954C
:0203140008954A
:02031600089548
:02031800089546
:02031A00089544
:02000004008278
:090000000000020000C40700002A
:00000001FF
