:100000000C9441000C94A9010C94A9010C94B50026
:100010000C946F010C94E0000C94A9010C94A901BC
:100020000C94A9010C94A9010C94A9010C94A901A8
:100030000C94A9010C94A9010C94A9010C94A90198
:100040000C94A9010C94A9010C94A9010C94A90188
:100050000C94A9010C94A9010C94A9010C94A90178
:100060000C94A9010C94A9010C94A9010C94A90168
:100070000C94A9010C94A9010C94A901380038062C
:10008000800011241FBECFEFCDBFDFE3DEBFECE762
:10009000F0E040E017C0B591A5913591259105910B
:1000A00007FD0CC095918591EF01F92FE82F059080
:1000B0000D92A217B307D9F7FE0104C01D92A21733
:1000C000B307E1F7E138F40731F70E9459010C94C6
:0600D0008901F894FFCF46
:1000D600CF93DF93C0E0D4E01C82A0E2B4E0149694
:1000E6001C921497E0E4F4E0148288E088831C9262
:1000F60081E08083188A198A1A8A1B8A1C8A1D8ABB
:100106001E8A1F8A50961C92509751961C925197A0
:1001160052961C92529753961C92539754961C9241
:10012600549755961C92559756961C9256975796E5
:100136001C92108A118A128A138A148A158A168AC0
:10014600178AE0E0F2E010821182128213828DEAB1
:1001560091E00E949B018EEA91E00E94A001DF914E
:04016600CF91089598
:10016A001F920F920FB60F9211242F933F934F9322
:10017A005F936F937F938F939F93AF93BF93EF9305
:10018A00FF931B9B05C0E0910238F0910338099553
:10019A008FEF83B9FF91EF91BF91AF919F918F91AB
:1001AA007F916F915F914F913F912F910F900FBE69
:0601BA000F901F90189544
:1001C0001F920F920FB60F9211242F933F934F93CC
:1001D0005F936F937F938F939F93AF93BF93EF93AF
:1001E000FF93589B05C0E0910038F09101380995C4
:1001F0008FEF8BB9FF91EF91BF91AF919F918F914D
:100200007F916F915F914F913F912F910F900FBE12
:060210000F901F901895ED
:10021600CF93DF9300D000D0CDB7DEB788E59BE162
:10022600A0E0B0E089839A83AB83BC830BC089814D
:100236009A81AB81BC810197A109B10989839A830F
:10024600AB83BC8389819A81AB81BC81892B8A2B44
:100256008B2B69F700002496CDBFDEBFDF91CF91CF
:020266000895F9
:1002680040E068ED80E690E00E94A50141E168ED7C
:1002780081E690E00E94A50140E068ED82E690E00A
:100288000E94A50140E068ED80E790E00E94A5018A
:1002980040E068ED88E790E00E94A50140E068ED45
:0A02A8008CE790E00E94A501089584
:1002B2000E94940181E0809347040E940B0188E030
:1002C200809307040E940B018091043890910538B5
:0C02D20001968093043890930538ECCF1F
:1002DE001F920F920FB60F9211248F938FEF87B943
:0C02EE008F910F900FBE0F901F9018957D
:1002FA0040E068ED80E191E00E94A501E0E1F1E0D3
:08030A001282138280E00895C5
:10031200EC010E94B0010E94AF01CE010E94B10126
:06032200CE010E94AB01B8
:0E0328000E9434010E946B000E947D01089526
:0A0336008093023890930338089575
:0A034000809300389093013808956F
:08034A00FC0164BF408308952B
:040352000C94000007
:040356000E94690098
:02035A00089504
:02035C00089502
:02035E00089500
:020360000895FE
:020362000895FC
:02000004008278
:090000000000020000C40700002A
:00000001FF
