:100000000C9441000C9436010C9436010C94A2001F
:100010000C942D010C9436010C9436010C9436018D
:100020000C9436010C9436010C9436010C94360174
:100030000C9436010C9436010C9436010C94360164
:100040000C9436010C9436010C9436010C94360154
:100050000C9436010C9436010C9436010C94360144
:100060000C9436010C9436010C9436010C94360134
:100070000C9436010C9436010C9436013800380487
:10008000800011241FBECFEFCDBFDFE3DEBFECE762
:10009000F0E040E017C0B591A5913591259105910B
:1000A00007FD0CC095918591EF01F92FE82F059080
:1000B0000D92A217B307D9F7FE0104C01D92A21733
:1000C000B307E1F7E138F40731F70E94F2000C942E
:0600D0001B01F894FFCFB4
:1000D600A0E0B4E014961C921497E0E2F4E01482D7
:1000E60088E08C93108250961C92509751961C92E1
:1000F600519752961C92529753961C925397549628
:100106001C92549755961C92559756961C92569744
:1001160057961C92108A118A128A138A148A158A93
:10012600168A178AE0E0F2E01082118212821382A8
:0E0136008AE391E08093003890930138089599
:100144001F920F920FB60F9211242F933F934F9348
:100154005F936F937F938F939F93AF93BF93EF932B
:10016400FF931B9B05C0E0910038F091013809957D
:100174008FEF83B9FF91EF91BF91AF919F918F91D1
:100184007F916F915F914F913F912F910F900FBE8F
:060194000F901F9018956A
:10019A0040E068ED80E690E00E94320141E168EDBE
:1001AA0081E690E00E94320140E068ED82E690E04C
:1001BA000E94320140E068ED80E790E00E9432013F
:1001CA0040E068ED88E790E00E94320140E068ED87
:0A01DA008CE790E00E9432010895C6
:1001E4000E94260188E080930104E0E0F4E028E026
:1001F40027833AE684E091E0315080409040E1F773
:1002040000C00000000080910238909103380196EC
:0A0214008093023890930338EBCF7B
:10021E0040E068ED80E191E00E943201E0E1F1E022
:08022E001282138280E00895A2
:10023600EC010E943C010E943B01CE010E943D015F
:06024600CE010E94380108
:0E024C000E94CD000E946B000E940F010895D9
:0A025A008F938FEF87B98F911895ED
:08026400FC0164BF4083089512
:04026C000C940000EE
:040270000E9469007F
:020274000895EB
:020276000895E9
:020278000895E7
:02027A000895E5
:02000004008278
:090000000000020000C40700002A
:00000001FF
