:100000000C9441000C9488010C9488010C94970086
:100010000C947B010C94C2000C9488010C94880110
:100020000C9488010C9488010C9488010C9488012C
:100030000C9488010C9488010C9488010C9488011C
:100040000C9488010C9488010C9488010C9488010C
:100050000C9488010C9488010C9488010C948801FC
:100060000C9488010C9488010C9488010C948801EC
:100070000C9488010C9488010C9488013800380491
:10008000800011241FBECFEFCDBFDFE3DEBFECE762
:10009000F0E040E017C0B591A5913591259105910B
:1000A00007FD0CC095918591EF01F92FE82F059080
:1000B0000D92A217B307D9F7FE0104C01D92A21733
:1000C000B307E1F7E138F40731F70E9409010C9416
:0600D0005201F894FFCF7D
:1000D60085E392E80197F1F7000060E083E00E9473
:1000E600ED0085E09DE00197F1F7000060E083E018
:1000F6000E94ED008AE992E00197F1F700C060E006
:1001060083E00E94ED0060E082E00E94ED0088E25C
:100116000E9480018CE00E94800181E00E948001A3
:0801260086E00E9480010895AB
:10012E001F920F920FB60F9211242F933F934F935E
:10013E005F936F937F938F939F93AF93BF93EF9341
:10014E00FF931B9B05C0E0910238F091033809958F
:10015E008FEF83B9FF91EF91BF91AF919F918F91E7
:10016E007F916F915F914F913F912F910F900FBEA5
:06017E000F901F90189580
:100184001F920F920FB60F9211242F933F934F9308
:100194005F936F937F938F939F93AF93BF93EF93EB
:1001A400FF93589B05C0E0910038F0910138099500
:1001B4008FEF8BB9FF91EF91BF91AF919F918F9189
:1001C4007F916F915F914F913F912F910F900FBE4F
:0601D4000F901F9018952A
:1001DA00CF9320E1829FC0011124C1E0611101C0C7
:1001EA00C0E0C82B0E945D018C2F88600E946601C6
:1001FA008C2F0E9466010E9475018AE992E001979C
:08020A00F1F700C0CF91089547
:100212000E946E010E946B0080E80E94800186E8C5
:1002220092E80E9434012AEA86E490E1215080405B
:100232009040E1F700C080EC0E94800184E992E8DE
:060242000E943401FFCF11
:10024800CF93DF93C82FD62F82958F700E94ED0031
:100258006D2F8C2F8F700E94ED00DF91CF91089544
:10026800CF93DF93EC018881882331F021960E9497
:0E027800840189918111FBCFDF91CF91089510
:1002860048656C6C6F2C20576F726C64210041546A
:0D02960074696E79313631362049324300EB
:1002A400EC010E948D010E948C01CE010E948E01FE
:0602B400CE010E948A0148
:1002BA008EE480931708E0E1F8E0858186FFFDCFA0
:0202CA00089595
:1002CC0080931808E0E1F8E0858186FFFDCF089562
:0E02DC00E0E1F8E080EA868381E08383089504
:0C02EA00E0E1F8E08481836084830895E3
:0A02F6008F938FEF87B98F91189551
:0803000060E00E942401089551
:0803080061E00E942401089548
:040310000C94000049
:040314000E946900DA
:02031800089546
:02031A00089544
:02031C00089542
:02000004008278
:090000000000010000C40700002B
:00000001FF
