:100000000C944D000C9439090C9439090C94570741
:100010000C949D060C9482070C9439090C943909B0
:100020000C9439090C9439090C9439090C94390948
:100030000C9439090C9439090C9439090C94390938
:100040000C9439090C9439090C9439090C94390928
:100050000C9439090C9439090C9439090C94390918
:100060000C9439090C9439090C9439090C94390908
:100070000C9439090C9439090C9439093800380268
:10008000803802381200128E381238248038243812
:100090002600129E38263828800011241FBECFEF7C
:1000A000CDBFDFE3DEBFECE7F0E040E017C0B59185
:1000B000A59135912591059107FD0CC095918591EC
:1000C000EF01F92FE82F05900D92A217B307D9F78A
:1000D000FE0104C01D92A217B307E1F7E939F40746
:0E00E00031F70E942B070C94F808F894FFCF1C
:1000EE00AEE0B0E0EDE7F0E00C945E084C016B0181
:1000FE0019821A828FEF9FEF8B839C831D821E8243
:10010E004F83588729873A87A12CB12CD6016D9041
:10011E007C90F301EA0DFB1D808181110FC0D60189
:10012E00ED93FC938081853209F0D3C13F01BFEF7F
:10013E006B1A7B0AF6016082718219C0853279F3DF
:10014E00B401082E000C990B0E9456054FEFA41A0D
:10015E00B40ADCCF8C32ACF08D32F9F489819A81FD
:10016E00816089839A833196D601ED93FC93D601F3
:10017E00ED91FC9180818B3269F789819A8184603F
:10018E00F0CF803221F489819A818860EACF833260
:10019E0051F489819A818061E4CF803321F4898181
:1001AE009A818260DECFB701C6010E94FD068D8363
:1001BE009E8397FF0BC029813A81B1E02B272983BB
:1001CE003A839195819591098D839E8389819A8138
:1001DE0080FF03C08D7F89839A83D601ED91FC91B8
:1001EE00119780818E3249F43196ED93FC93B701CD
:1001FE00C6010E94FD068B839C83C6010E941E08C9
:10020E00582ED601ED91FC918081082E000C990B91
:10021E000E942009893609F443C084F4833609F418
:10022E0002C134F4853209F427C18136E1F030C1C0
:10023E008436B1F188360CF4D9C02AC1803709F45E
:10024E009AC03CF48E3609F4BCC08F3609F461C0F6
:10025E001FC1853709F440C0883709F476C083374B
:10026E0009F016C1F3C0652D70E0A701CE010B9603
:10027E000E940000892B09F426C1D601ED91FC9154
:10028E001197CF0101968D939C932081AE01455F0E
:10029E005F4FBE016F5F7F4FC4010E94000010C10F
:1002AE00652D70E0970141E050E0CE010B960E9463
:1002BE00D503892B09F407C1F6018081918101963E
:1002CE0080839183AE01455F5F4FBE016F5F7F4FAD
:1002DE00C4010E946303F4C0652D70E0970140E0F5
:1002EE0050E0CE010B960E94D503892B09F4EBC08A
:1002FE00D6018D919C91119701968D939C93AE0191
:10030E00455F5F4FBE016F5F7F4FC4010E94A20524
:10031E00D7C0652D70E0970140E050E0CE010B96FE
:10032E000E94D503892B09F4CEC0F60180819181FC
:10033E00019680839183AE01455F5F4FBE016F5F73
:10034E007F4FC4010E94FD04BBC0652D70E0970174
:10035E0040E050E0CE010B960E94D503892B09F4A4
:10036E00B2C0D601ED91FC911197CF0101968D93FC
:10037E009C9320811CC0970140E050E060EF70E03C
:10038E00CE010B960E94D503892B09F49CC0F60171
:10039E00808191810196808391838B859C85892BA9
:1003AE0029F420E030E04BE652E984C028E7AE01A4
:1003BE00455F5F4FBE016F5F7F4FC4010E947502A4
:1003CE007FC0A501400F511F652D70E09701CE0132
:1003DE000B960E940000892B09F475C0D6018D91F1
:1003EE009C91119701968D939C9373C0652D70E02F
:1003FE00A701CE010B960E940000892B09F463C061
:10040E00D601ED91FC911197CF0101968D939C939E
:10041E002081AE01455F5F4FBE016F5F7F4FC4010C
:10042E000E9400004DC0B0E85B124DC0F601808105
:10043E009181019680839183D701ED91FC91119763
:10044E00CF0102968D939C93808120C0B0E85B1201
:10045E003AC0F60180819181019680839183D70104
:10046E00ED91FC911197CF0102968D939C93408153
:10047E00518120E030E01EC0B0E85B1224C0F601CE
:10048E00208131812F5F3F4F208331838B870DC0B9
:10049E0085E28B87D6016D927C9219821A821D821B
:1004AE001E828FEF9FEF8B839C8321E030E0AE01A5
:1004BE00455F5F4FBE016F5F7F4FC4010E94AD0766
:1004CE008A0D9B1D07C0F601808191810196808364
:0C04DE009183C5012E96EFE00C94A70856
:1004EA00AFE0B0E0EBE7F2E00C945B081C016B01B3
:1004FA0049835A832B83FB0182819381848095806F
:10050A0000811181A680B78097FD02C00D7F02C0CD
:10051A0081E090E0E981FA814080518062807380B5
:10052A009801207133272C833D83740104FF08C08E
:10053A00411451046104710419F032E0E31AF1081C
:10054A00F801E870FF27EE83FF8303FF03C0F1E0A1
:10055A00EF1AF108F6010084F185E02D3197EE8754
:10056A00FF87EA0DFB1D10829C012E193F0928877F
:10057A003987C801827099278A879B87EB818E2FDA
:10058A00EE0F990B9C01215431092C873D872E854A
:10059A003F852230310530F48C819D81892B09F009
:1005AA0042C05CC0411451046104710461F18E853A
:1005BA009F8501978E879F87C2018F7099278A30FE
:1005CA00910514F4C09602C0895A9F4FEC85FD85A7
:1005DA007A9748F49C012062215631092A31310563
:1005EA0010F40E941709EE85FF85EA0DFB1D808332
:1005FA00F1E0EF1AF10884E07694679457944794EF
:10060A008A95D1F7C4CF888599858E0D9F1D1816B6
:10061A0019066CF21E141F040CF0BECFEA85FB8586
:10062A00EF2B29F6B9CFE981FA8180819181A281E4
:10063A00B381892B8A2B8B2B89F0EE85FF85EA0DF6
:10064A00FB1D31972B8120838E859F8502978E878C
:10065A009F87FC01EA0DFB1D80E38083EE81FF8109
:10066A00EF2B59F02E853F85215031092E873F8780
:10067A00F901EA0DFB1D80E28083F6014085518570
:10068A00415051092E853F85421B530BB9016A0D12
:10069A007B1D9401C1010E9464069C01F1018081C5
:1006AA00918190FF06C0F601828193818217930798
:0C06BA000CF4C9012F96E2E10C94A40896
:1006C600A2E0B0E0E9E6F3E00C945B083C016B01C4
:1006D600FB0122813381A480B58080819181898349
:1006E6009A8386809780FA012080318042805380E9
:1006F600B201A10157FE07C044275527BA01421986
:1007060053096409750937FD03C08D7F89839A8370
:10071600950157FC05C0898182FD02C083FF02C096
:1007260021503109CE0101967C010AE010E0C60194
:100736000E943D0457FC03C0298122FF0AC001978D
:10074600F401E80FF91F57FC02C02BE209C02DE2A5
:1007560007C023FF06C00197F401E80FF91F20E246
:10076600208309811A81F60140855185415051093E
:10077600481B590BB401680F791F9501C3010E94EC
:1007860064069C01F3018081918190FF06C0F60109
:1007960082819381821793070CF4C9012296E2E1C4
:0407A6000C94A40803
:1007AA00CF93DF93DC01F90168387105F1F05CF44D
:1007BA006138710561F164387105A1F1603871051C
:1007CA0009F051C02FC0603C710509F441C0603F77
:1007DA007105F1F1603A710509F045C0C081D18116
:1007EA00CE0102968083918325C0C081D181CE013A
:1007FA00029680839183452B39F04881042E000CA0
:10080A00550B660B770B1CC0488150E029C0C0818C
:10081A00D181CE01049680839183488159816A816E
:10082A007B810EC0C081D181CE01029680839183E3
:10083A00452BA1F048815981052E000C660B770BD8
:10084A004D935D936D937C93139781E090E00DC077
:10085A00C081D181CE0102968083918348815981DA
:10086A0060E070E0EDCF80E090E0DF91CF910895F5
:10087A00A0E0B0E0E3E4F4E00C945D08DC012801B8
:10088A001696AD90BC901797F701808191811296C8
:10089A00ED91FC9113971896CD91DC9119972197B8
:1008AA00F7FF02C0E1E0F0E0CA0DDB1D1882690122
:1008BA00A1E0B0E08F01021B130B4C01F2E08F2282
:1008CA009924052C000C66087708CE018A199B0921
:1008DA00CA15DB0519F1411551056105710589F044
:1008EA00CB01BA01A30192010E94FC07CA01A62FFB
:1008FA00B72F605D6A9341E0C41AD108A901BC010F
:10090A00E4CF98012C0D3D1D121613064CF31C144E
:10091A001D0434F48114910419F702C080E090E0B8
:10092A00AB2B31F4F701208131812F7E2083318373
:0A093A00CDB7DEB7E0E10C94A6088B
:10094400CF93DF93C0E0D4E01C82A0E2B4E084E063
:1009540014968C931497E0E4F4E0148298E098835E
:100964008C9381E08083188A198A1A8A1B8A1C8ACC
:100974001D8A1E8A1F8A50961C92509751961C926B
:10098400519752961C92529753961C925397549691
:100994001C92549755961C92559756961C925697AE
:1009A40057961C92108A118A128A138A148A158AFD
:1009B400168A178AE0E0F2E0108211821282138212
:1009C4008DE399E080931838909319388EE399E079
:1009D40080931638909317388FE399E080931438F6
:1009E4009093153880E499E08093123890931338EB
:0609F400DF91CF91089590
:1009FA00A2E0B0E0E3E0F5E00C945F084C016B0183
:100A0A00FB01228133816480758080819181898391
:100A1A009A83A680B78037FD03C08D7F89839A8326
:100A2A00FA014081518162817381CE0101967C0174
:100A3A0008E010E09301C6010E943D04298124FFC9
:100A4A0006C00197F501E80FF91F20E320832981E9
:100A5A0023FF06C00197F501E80FF91F20E2208362
:100A6A0009811A81F6014085518541505109481B77
:100A7A00590BB501680F791F9301C4010E946406DE
:100A8A009C01F4018081918190FF06C0F601828168
:100A9A009381821793070CF4C9012296EEE00C9415
:020AAA00A8089A
:100AAC000F931F93CF93DF93DB01109719F48FEF04
:100ABC009FEF3DC02D913C91119730FF25C01696AC
:100ACC004D915C91179714962D913C911597421767
:100ADC00530778F41296ED91FC911397808312963C
:100AEC002D913C9113972F5F3F4F12962D933C9372
:100AFC00139716962D913C9117972F5F3F4F169693
:100B0C002D933C93179713C01C96ED91FC911D9758
:100B1C00309769F2EB01092F182F0995892B39F6BB
:100B2C008E819F8101968E839F83812F902FDF91E1
:080B3C00CF911F910F91089564
:100B4400A2E0B0E0E8EAF5E00C945F085C016B0118
:100B5400FB01228133818480958080819181898306
:100B64009A836680778037FD03C08D7F89839A835B
:100B7400FA014081518162817381CE0101967C0129
:100B84000AE010E09401C6010E943D0409811A8123
:100B9400F6014085518541505109481B590BB30159
:100BA400680F791F9401C5010E9464069C01F50138
:100BB4008081918190FF06C0F60182819381821722
:0E0BC40093070CF4C9012296EEE00C94A808E9
:100BD200EF92FF920F931F93CF93DF93E82EF12CA6
:100BE2001E141F0494F4C0E0D0E008E711E9DF937B
:100BF200CF931F930F930E94740821960F900F902A
:100C02000F900F90CE15DF0591F7CBE8D1E9DF9376
:100C1200CF930E947408809123388F938091223859
:100C22008F938EE891E99F938F930E947408DF93CC
:100C3200CF930E9474088DB79EB708968DBF9EBF52
:0E0C4200DF91CF911F910F91FF90EF900895D9
:100C5000A2E8B0E0EEE2F6E00C9461085C014A0123
:100C6000CF57DF4F68837983C158D040C12CD12C36
:100C7000CF57DF4FE881F981C158D0408081882368
:100C8000E9F07401860120E830E0AE014F5F5F4F6C
:100C9000BE016F577F4FC5010E9477008C0D9D1DCF
:100CA0008C159D054CF48FE490E080930038909370
:100CB00001388FEF9FEF03C06C01DACFC601CE572A
:080CC000DF4FECE00C94AA08E0
:100CC800A0E0B0E0EAE6F6E00C9461086C015B0194
:100CD8007A01E901480181E08822992400FD03C0D6
:100CE8004217530750F0A701B501C6010E943E08FC
:100CF800EC16FD0610F0C70117C08E010E191F096A
:100D08000115110541F0B60180E290E00E945605F8
:100D180001501109F5CF8114910429F4A701B501F7
:100D2800C6010E943E08CE01CDB7DEB7ECE00C94B8
:020D3800AA0807
:100D3A001F920F920FB60F9211242F933F934F9346
:100D4A005F936F937F938F939F93AF93BF93EF9329
:100D5A00FF933B9B05C0E0911838F091193809952B
:100D6A003A9B05C0E0911638F091173809958FEF34
:100D7A0087B9FF91EF91BF91AF919F918F917F9129
:100D8A006F915F914F913F912F910F900FBE0F90EE
:040D9A001F901895F9
:100D9E00E0E0F8E087E594E080879187158280ECAB
:100DAE00868383E08783138614861686158681E4F0
:100DBE0099E080931E3890931F3882E499E08093D7
:100DCE001C3890931D3883E499E080931A389093E1
:100DDE001B381092203810922138E0912438F0916F
:0C0DEE00253882E098E38083918308950B
:100DFA00DC01ED91FC91119780818A3221F080E02B
:100E0A0090E03AE00EC03196ED93FC93DB01ED9150
:100E1A00FC911197CF0102968D939C9380819181C9
:100E2A000895ED91FC911197208120532A3068F49E
:100E3A00389FA001399F500D1124CA01820F911DBC
:0C0E4A003196ED93FC931197ECCF0895C6
:100E56000E940E096894EE24E6F8FF24F2F8D1E029
:100E660007E014E0C8E00000F701D783F5E523E2C8
:100E760088E0F15020408040E1F70000F801C0838F
:100E8600F5E523E288E0F15020408040E1F78091CB
:100E960022389091233801968093223890932338F4
:080EA60087E00E94E905DFCF9F
:100EAE001F920F920FB60F9211242F933F934F93D1
:100EBE005F936F937F938F939F93AF93BF93EF93B4
:100ECE00FF931B9B05C0E0911438F09115380995DE
:100EDE008FEF83B9FF91EF91BF91AF919F918F915A
:100EEE007F916F915F914F913F912F910F900FBE18
:060EFE000F901F901895F3
:100F04001F920F920FB60F9211242F933F934F937A
:100F14005F936F937F938F939F93AF93BF93EF935D
:100F2400FF93589B05C0E0911238F091133809954E
:100F34008FEF8BB9FF91EF91BF91AF919F918F91FB
:100F44007F916F915F914F913F912F910F900FBEC1
:060F54000F901F9018959C
:100F5A00A0E0B0E0E3EBF7E00C9463087C01FB014E
:100F6A00EA01C901A280B380C480D58000811181C1
:100F7A00209711F4C4E6D2E9009719F4CE010E9431
:100F8A00D208B7FC04C0A816B90608F4C501960130
:100F9A00AC01BE01C7010E946406CDB7DEB7EAE024
:040FAA000C94AC08EF
:100FAE0040E068ED80E690E00E942E0941E168ED98
:100FBE0081E690E00E942E0940E068ED82E690E026
:100FCE000E942E0940E068ED80E790E00E942E0915
:100FDE0040E068ED88E790E00E942E0940E068ED61
:0A0FEE008CE790E00E942E090895A0
:100FF800A1E21A2EAA1BBB1BFD010DC0AA1FBB1F15
:10100800EE1FFF1FA217B307E407F50720F0A21B86
:10101800B30BE40BF50B661F771F881F991F1A94F3
:1010280069F760957095809590959B01AC01BD011D
:04103800CF01089547
:10103C00CF93DF93EC0190E0E92FF0E0EE0FFF1F70
:10104C00EA5FFD468081811102C081810EC0A881BA
:10105C00B9812C91821305C091811196A883B98313
:10106C0001C09F5F9B3040F3892FDF91CF91089592
:10107C00A0E0B0E0E4E4F8E00C9465086C01EB014E
:10108C008A017B01E40EF51ECE15DF0541F0899136
:10109C00B601082E000C990B0E945605F5CFC8011D
:0A10AC00CDB7DEB7E8E00C94AE0803
:1010B6002F923F924F925F926F927F928F929F9262
:1010C600AF92BF92CF92DF92EF92FF920F931F9350
:1010D600CF93DF93CDB7DEB7CA1BDB0BCDBFDEBF29
:0210E60009946B
:1010E800A0E0B0E0EAE7F8E00C946B08AE014B5FD3
:1010F8005F4FFA0161917191AF01E0912438F0914D
:101108002538808191810E948C08E2E00C94B40813
:10111800A2E0B0E0E2E9F8E00C9469088C014983A8
:101128005A83AE014F5F5F4F0E942806F801208165
:1011380024FF02C08FEF9FEF2296E4E00C94B208E0
:101148002A88398848885F846E847D848C849B844F
:10115800AA84B984C884DF80EE80FD800C811B815D
:10116800AA81B981CE0FD11DCDBFDEBFED01089593
:1011780025642E2048656C6C6F20576F726C642153
:101188000A0D000A0D00436F756E74657220766152
:0C1198006C7565203D202564200A0D00C8
:1011A400FC01AF014F5F5F4F2081222311F0FA0150
:0C11B400F8CF9F01281B390BC9010895DA
:1011C00040E068ED80E191E00E942E09E0E1F1E06D
:0811D0001282138280E00895F1
:1011D800CF93C82F0E9428098823E1F3C0930208FF
:0811E80080E090E0CF91089532
:1011F000EC010E9445090E944409CE010E94460963
:06120000CE010E943B0933
:1012060068076C094C836A9074A07AC0008068886D
:0612160000846C820081DF
:10121C000E94D7070E94A2040E94CF060E94E008F9
:02122C00089523
:10122E009C01215631092A31310510F48F75992709
:02123E00089511
:101240009C01215431092A31310508F48062089546
:0C1250008091040885FB882780F9089530
:08125C00FC0164BF408308950A
:07126400286E756C6C290077
:06126B00286E696C2900E9
:041272000C940000D8
:041276000E9475005D
:02127A000895D5
:02127C000895D3
:02127E000895D1
:021280000895CF
:021282000895CD
:021284000895CB
:021286000895C9
:021288000895C7
:02128A000895C5
:02128C000895C3
:10128E00030000000000000000000000EC08000059
:02129E002638F0
:02000004008278
:090000000000010000C40700002B
:00000001FF
